0000801790008237130174955000072000015768023/09/2022REFATURAMENTO                 
0000801790008237130165638000107630024647223/09/2022REFATURAMENTO                 
0000801790008237130166863000066120018447423/09/2022REFATURAMENTO                 
0000801790008237150174955000072000015768023/09/2022REFATURAMENTO DEV             
0000801790008237150165638000107630024647223/09/2022REFATURAMENTO DEV             
0000883150008213260160830000015000001539009/09/2022PEDIDO EM DUPLICIDADE         
0001348990008179440153680000068880011007020/08/2022CLIENTE DESISTIU DA COMPRA    
0001348990008179440346853000020000002796020/08/2022CLIENTE DESISTIU DA COMPRA    
0001613810008213320166375000020000000756009/09/2022DIVERGENCIA NO PEDIDO         
0001613810008213320153788000012000001068009/09/2022DIVERGENCIA NO PEDIDO         
0001613810008213320347078000036000010764009/09/2022DIVERGENCIA NO PEDIDO         
0001613810008213320155942000006870001441309/09/2022DIVERGENCIA NO PEDIDO         
0001613810008213320346799000024000003727209/09/2022DIVERGENCIA NO PEDIDO         
0001613810008213320348341000007200001582509/09/2022DIVERGENCIA NO PEDIDO         
0001613810008213320347744000010080002114709/09/2022DIVERGENCIA NO PEDIDO         
0001613810008213320347752000022680004758209/09/2022DIVERGENCIA NO PEDIDO         
0001613810008213320348562000001000001690009/09/2022DIVERGENCIA NO PEDIDO         
0001613810008213320348368000012000001354809/09/2022DIVERGENCIA NO PEDIDO         
0001613810008213320348228000036000001792809/09/2022DIVERGENCIA NO PEDIDO         
0001613810008213320157341000006000001486209/09/2022DIVERGENCIA NO PEDIDO         
0001613810008213320160679000042000005489409/09/2022DIVERGENCIA NO PEDIDO         
0001613810008213320164569000015000001723509/09/2022DIVERGENCIA NO PEDIDO         
0001613810008213320165808000036000004136409/09/2022DIVERGENCIA NO PEDIDO         
0001613810008213320168351000225000017955009/09/2022DIVERGENCIA NO PEDIDO         
0001613810008213320347809000036000004672809/09/2022DIVERGENCIA NO PEDIDO         
0001613810008213320347620000240000023952009/09/2022DIVERGENCIA NO PEDIDO         
0001613810008213340174661000048000002390409/09/2022DIVERGENCIA NO PEDIDO         
0001694550008213270160830000015000001539009/09/2022PEDIDO EM DUPLICIDADE         
0100215271090000000000010851438
02500VENDA NORMAL                  
02501CLIENTE BLOQ OU DEV           
02502CLIENTE SEM DINHEIRO          
02503COMPRADOR AUSENTE             
02504COMPROU CONCORRENTE           
02505ESTOCADO COM PRODUTOS         
02513CLIENTE EVENTUAL              
02514CLIENTE FECHADO               
02515FALTA DE TEMPO                
02516FERIADO                       
02517FERIAS                        
02518FORA DO ROTEIRO               
02520QUINZENAL                     
02521TELE VENDAS                   
030001180016101200360026/09/202200000589
030001180034685300100017/08/202200001495
030001180015378800120022/09/202200000990
030001180016835100150026/09/202200000939
030001180015141600200027/09/202200000910
030001180017414900020017/08/202200000699
030001180017527700010022/09/202200000216
030001180017491200010022/09/202200000371
030001180034835000120022/09/202200000598
030001180017385100010022/09/202200000599
030001180015364800010022/09/202200000211
030001180015365600010022/09/202200000211
030001180015376100010022/09/202200000211
030001180015360500010022/09/202200000211
030001180034635700040022/09/202200001098
030004995015378800120022/08/202200000990
030004995017414900060005/09/202200000429
030004995017538200240022/08/202200001098
030004995034762000240022/08/202200001098
030004995015360500060005/09/202200000239
030004995034635700040005/09/202200001098
030004995034670500040005/09/202200001098
030004995034705100040005/09/202200001098
030004995017563300040022/08/202200001098
030006602034685300300031/08/202200001398
030006602015364800010023/09/202200000211
030006602015365600010023/09/202200000211
030006602015376100010023/09/202200000211
030006602015360500010023/09/202200000211
030012661034685300300006/09/202200001398
030012661015378800120006/09/202200001026
030012661016580800120014/09/202200001271
030012661017414900020006/09/202200000699
030012661017527700240027/09/202200000237
030012661017466100120027/09/202200000579
030012661017491200120006/09/202200000371
030012661015364800120027/09/202200000247
030012661015376100120027/09/202200000247
030012661015360500120027/09/202200000247
030014273016563800559002/09/202200002390
030014273034791400426302/09/202200003090
030014273034822800120002/09/202200000525
030014273034835000120002/09/202200000604
030014273015364800020002/09/202200000241
030014273015360500240002/09/202200000241
030014273015594200275216/09/202200002220
030019275017414900010022/08/202200000699
030019275017050000200022/08/202200001198
030019275015364800010023/09/202200000211
030019275015365600010023/09/202200000211
030019275015376100010023/09/202200000211
030019275015360500010023/09/202200000211
030019631015378800060022/08/202200000990
030019631034505900180019/08/202200000869
030019631017414900010012/09/202200000699
030019631017527700010012/09/202200000216
030019631017491200010012/09/202200000371
030019631034654300050012/09/202200001290
030019631015364800010012/09/202200000211
030019631015365600010012/09/202200000211
030019631015376100010012/09/202200000211
030019631015360500010012/09/202200000211
030019631034635700040026/09/202200001270
030019631034670500040026/09/202200001270
030019631034705100040005/09/202200001270
030019631017563300040026/09/202200001181
030024988016101200360015/08/202200000568
030024988034685300100005/09/202200001552
030024988015378800060026/09/202200001026
030024988017469600072022/08/202200001648
030024988034780900072026/09/202200001534
030024988016065200140026/09/202200000930
030024988034849000360029/09/202200000789
030024988016672300360002/09/202200001345
030024988034774400020105/09/202200002332
030024988034775200032426/09/202200002332
030024988017414900030026/09/202200000699
030024988015519500400029/09/202200001298
030024988017466100120026/09/202200000579
030024988017484000120026/09/202200000629
030024988034883000240005/09/202200000321
030024988034835000120014/09/202200000620
030024988017385100050026/09/202200000599
030024988015364800120026/09/202200000247
030024988015376100120026/09/202200000247
030024988015360500120026/09/202200000247
030024988015594200068714/09/202200002278
030024988015377000027005/09/202200002000
030025224016817300126005/09/202200001313
030025224017414900020005/09/202200000699
030025704017469600144028/09/202200001648
030025704034780900072008/09/202200001390
030025704016065200420028/09/202200000930
030025704017414900010008/09/202200000699
030025704017484000240028/09/202200000629
030025704015364800060014/09/202200000247
030025704015376100060014/09/202200000247
030025704015360500120008/09/202200000247
030034525016067900140031/08/202200001120
030034525016817300252027/09/202200001478
030034525015378800120027/09/202200000940
030034525017469600216021/09/202200001290
030034525017484000120027/09/202200000772
030034525017486600240027/09/202200000772
030034525017520000120027/09/202200000772
030034525034835000600008/09/202200000532
030045640016580800120005/09/202200001271
030045640034745000180005/09/202200002390
030045640034881300020005/09/202200003028
030045640015336200040005/09/202200001210
030045640015541100046605/09/202200001202
030052124034685300300006/09/202200001398
030052124017469600360006/09/202200001398
030052124017414900060006/09/202200000439
030052124017567601200027/09/202200000998
030052124017527700010006/09/202200000216
030052124017491200010006/09/202200000371
030052124015364800120027/09/202200000244
030052124015376100120027/09/202200000244
030052124015360500120027/09/202200000244
030055700034674800147030/08/202200001311
030055700034685300100018/08/202200001495
030055700016065200280014/09/202200001000
030055700016580800240014/09/202200001271
030055700017491200240030/08/202200000464
030055700017484000120014/09/202200000803
030057428017469600360005/09/202200001398
030057428017527700120005/09/202200000216
030057428017491200120005/09/202200000371
030057428015364800120022/08/202200000211
030057428015365600120022/08/202200000211
030057428015376100120022/08/202200000211
030057428015360500120005/09/202200000241
030061069017508000010021/09/202200000199
030061069017491200010021/09/202200000371
030061069015379600130022/09/202200000968
030061069015364800010021/09/202200000211
030061069015365600010021/09/202200000211
030061069015376100010021/09/202200000211
030061069015360500010021/09/202200000211
030062006017150600010018/08/202200000325
030062006017512900010018/08/202200000325
030062006034861900010018/08/202200000549
030062006017414900010018/08/202200000651
030062006017508000010021/09/202200000199
030062006017527700010018/08/202200000216
030062006017491200010021/09/202200000371
030062006017530700120022/08/202200001099
030062006017562500010018/08/202200000471
030062006015364800010021/09/202200000211
030062006015365600010021/09/202200000211
030062006015376100010021/09/202200000211
030062006015360500010021/09/202200000211
030062332017508000010021/09/202200000199
030062332017491200010021/09/202200000371
030062332015364800010021/09/202200000211
030062332015365600010021/09/202200000211
030062332015376100010021/09/202200000211
030062332015360500010021/09/202200000211
030063878017414900010024/08/202200000599
030063878017508000010021/09/202200000199
030063878017491200010021/09/202200000371
030063878034883000010024/08/202200000299
030063878015364800010021/09/202200000211
030063878015365600010021/09/202200000211
030063878015376100010021/09/202200000211
030063878015360500010021/09/202200000211
030064920016164000147015/09/202200001298
030064920016817300126030/08/202200001266
030064920015378800060013/09/202200000990
030064920034861900220021/09/202200000610
030064920016065200140030/08/202200000990
030064920001222000368013/09/202200001199
030064920034890200240024/08/202200000699
030064920017414900040027/09/202200000429
030064920017527700010006/09/202200000216
030064920017491200010006/09/202200000371
030064920017385100020021/09/202200000599
030064920015379600130015/09/202200000968
030064920015350800130024/08/202200000968
030064920015364800060018/08/202200000239
030064920015376100060015/09/202200000239
030064920015360500060015/09/202200000239
030064920015373700040021/09/202200001198
030064920015336200080027/09/202200001198
030065030017150600010006/09/202200000325
030065030017512900010006/09/202200000325
030065030034505900360026/08/202200000789
030065030017414900060029/09/202200000445
030065030015519500200006/09/202200001298
030065030017567600480029/09/202200001098
030065030017527700010006/09/202200000216
030065030017491200010006/09/202200000371
030065030017385100010026/08/202200000599
030065030017562500010006/09/202200000471
030065030015364800060029/09/202200000247
030065030015365600010006/09/202200000211
030065030015376100060029/09/202200000247
030065030015360500010006/09/202200000211
030065030034788400200026/08/202200001790
030065528015378800180006/09/202200001026
030065528017466100480006/09/202200000519
030065528017484000240006/09/202200000824
030065528015594200274806/09/202200002278
030072311015378800120008/09/202200001000
030072311017150600010008/09/202200000325
030072311017512900010008/09/202200000325
030072311034505901080022/08/202200000799
030072311015141601200015/08/202200000799
030072311017414900010008/09/202200000651
030072311017527700010008/09/202200000216
030072311017491200010008/09/202200000371
030072311017530700060015/08/202200001295
030072311017562500010008/09/202200000471
030072311015364800010015/08/202200000211
030072311015376100010015/08/202200000211
030072311015360500010008/09/202200000211
030077119034685300600006/09/202200001398
030077119034906201362708/09/202200002698
030077119015378800120021/09/202200001026
030077119017469600360021/09/202200001398
030077119017414900020006/09/202200000699
030077119017484000600006/09/202200000739
030077119017486600240006/09/202200000739
030077119015364800240023/08/202200000247
030077119015376100240030/08/202200000247
030077119015360500240021/09/202200000247
030080179016563802152623/09/202200002290
030080179016686300661223/09/202200002790
030080179034861900220017/08/202200000569
030080179017495501440023/09/202200002190
030080179016672300720012/09/202200001079
030080179034505900900017/08/202200000799
030080179034890200240025/08/202200000699
030080179017414900010001/09/202200000699
030080179015519501000018/08/202200001298
030080179017538200240025/08/202200001298
030080179017050001000025/08/202200001198
030080179015365600010001/09/202200000211
030080179015360500010001/09/202200000211
030080179015368000068822/09/202200001816
030080179017429700066022/09/202200003390
030080330015378800060005/09/202200000990
030080330017414900010005/09/202200000699
030080330017466100120005/09/202200000559
030080330017484000120005/09/202200000795
030080330015360500060005/09/202200000239
030082619017527700480015/09/202200000229
030082619017466100240015/09/202200000519
030082619015364800240015/09/202200000239
030082619015365600060015/09/202200000239
030082619015376100240015/09/202200000239
030082619015360500120015/09/202200000239
030082953034901100176729/09/202200002590
030082953015378800120019/09/202200001000
030082953034780900216012/09/202200001495
030082953034826000160005/09/202200001210
030082953017414900060005/09/202200000433
030082953015519500600015/09/202200001298
030082953017050002000025/08/202200001198
030082953017466100240012/09/202200000519
030082953034822800120019/09/202200000525
030082953017491200240019/09/202200000464
030082953017484000120026/09/202200000803
030082953015379600650022/09/202200000390
030082953015350800130002/09/202200000978
030082953015364800010026/09/202200000211
030082953015365600010026/09/202200000211
030082953015376100010026/09/202200000211
030082953015360500010026/09/202200000211
030082953034635700040026/09/202200001098
030082953034670500040026/09/202200001098
030082953034705100040026/09/202200001098
030082953017563300040026/09/202200001098
030082953015594200275219/09/202200002220
030082953015373700160002/09/202200001210
030082953015336200160002/09/202200001210
030083240017508000010021/09/202200000199
030083240017491200010021/09/202200000371
030083240015364800010021/09/202200000211
030083240015365600010021/09/202200000211
030083240015376100010021/09/202200000211
030083240015360500010021/09/202200000211
030087246015378800120012/09/202200000990
030087246017469600144024/08/202200001590
030087246016065200140026/09/202200000990
030088315016083000150015/09/202200001026
030088315017414900010006/09/202200000699
030088315034745000030023/08/202200002490
030088315034875900020006/09/202200002275
030088951015378800120028/09/202200000990
030088951034861900110028/09/202200000610
030088951017491200240013/09/202200000459
030088951015364800060013/09/202200000211
030088951015365600060013/09/202200000211
030088951015376100060013/09/202200000211
030088951015360500060013/09/202200000211
030092606015378800060021/09/202200000990
030092606017414900060013/09/202200000449
030092606017527700240013/09/202200000229
030092606017491200060006/09/202200000371
030092606015364800240021/09/202200000239
030092606015376100240021/09/202200000239
030092606015360500240021/09/202200000239
030096610015378800120019/08/202200001013
030096610034780900072015/09/202200001514
030096610017150600010002/09/202200000325
030096610017512900010002/09/202200000325
030096610034861900220023/09/202200000624
030096610016145400020123/09/202200001789
030096610017414900010002/09/202200000651
030096610015519500200023/09/202200001298
030096610017538200120002/09/202200001328
030096610017527700010002/09/202200000216
030096610017491200010002/09/202200000371
030096610017385100060019/08/202200000599
030096610015350800130023/09/202200000991
030096610017562500010002/09/202200000471
030096610015364800020015/09/202200000211
030096610015365600020015/09/202200000211
030096610015376100020015/09/202200000211
030096610015360500020015/09/202200000211
030096610034635700040015/09/202200001098
030096610034670500040015/09/202200001098
030096610034705100040015/09/202200001098
030097306017508000010021/09/202200000199
030097306017491200010021/09/202200000371
030097306015364800010021/09/202200000211
030097306015365600010021/09/202200000211
030097306015376100010021/09/202200000211
030097306015360500010021/09/202200000211
030101966034685300300006/09/202200001398
030101966015378800120024/08/202200001000
030101966017469600360006/09/202200001398
030101966016835101500008/09/202200000906
030101966017414900020006/09/202200000699
030101966017466100720015/08/202200000498
030101966017491200240013/09/202200000464
030101966017385100030013/09/202200000599
030101966015364800030013/09/202200000211
030101966015365600030013/09/202200000211
030101966015376100030013/09/202200000211
030101966015360500030013/09/202200000211
030103934016101200360015/09/202200000603
030103934034685300200026/08/202200001548
030103934034843001612819/09/202200002998
030103934016651001465914/09/202200003050
030103934016065200140015/09/202200000930
030103934016835100150015/09/202200000960
030103934017414900020006/09/202200000699
030103934017484000120006/09/202200000629
030103934015364800120015/09/202200000244
030103934015376100120015/09/202200000244
030103934015360500120015/09/202200000244
030113913015355900149226/09/202200001513
030113913017414900010005/09/202200000699
030113913017527700010005/09/202200000216
030113913017491200010005/09/202200000371
030113913015364800010012/09/202200000211
030113913015365600010012/09/202200000211
030113913015376100010012/09/202200000211
030113913015360500010012/09/202200000211
030113913015336200320026/09/202200001210
030114138034685300600006/09/202200001398
030114138017414900020006/09/202200000699
030114138017484000120006/09/202200000739
030114138017486600120006/09/202200000739
030114138015360500060006/09/202200000247
030115533017414900010005/09/202200000699
030115533017527700010005/09/202200000216
030115533017491200010005/09/202200000371
030115533015379600130026/09/202200000978
030115533015350800130026/09/202200000978
030115533015364800120012/09/202200000241
030115533015368000068826/09/202200001816
030115533015373700040029/08/202200001210
030115835015378800120028/09/202200001026
030115835017469600072017/08/202200001648
030115835017414900010008/09/202200000699
030115835015519500400014/09/202200001298
030115835017567601200028/09/202200000998
030115835017050001000027/08/202200001198
030115835034762000720017/08/202200001098
030115835015364800060014/09/202200000247
030115835015376100060014/09/202200000247
030115835015360500060017/08/202200000247
030120545034685300100016/08/202200001495
030120545017469600144016/08/202200001480
030120545016835100150013/09/202200000939
030120545017301000040006/09/202200001190
030120545017414900060016/08/202200000619
030120545017050002200027/08/202200001198
030120545017527700010006/09/202200000216
030120545034822800240026/09/202200000509
030120545017491200010006/09/202200000371
030120545015364800060026/09/202200000239
030120545015376100120026/09/202200000239
030120545015360500060026/09/202200000239
030124354034780900072031/08/202200001590
030124354017150600010002/09/202200000325
030124354017512900010002/09/202200000325
030124354017495500180023/09/202200002373
030124354034730200180023/09/202200001399
030124354017571400150017/09/202200002548
030124354034826000160026/09/202200001399
030124354034505900360026/08/202200000901
030124354015141600400015/09/202200000912
030124354001225400180012/09/202200001283
030124354001418400200013/09/202200001991
030124354015142400200002/09/202200001792
030124354001487700150005/09/202200001959
030124354034774400020125/08/202200002332
030124354017414900010002/09/202200000651
030124354017527700010002/09/202200000216
030124354034822800120025/08/202200000590
030124354017491200010002/09/202200000371
030124354017484000120025/08/202200000817
030124354015350800130012/09/202200001004
030124354017562500010002/09/202200000471
030124354015364800010012/09/202200000211
030124354015365600010012/09/202200000211
030124354015376100010012/09/202200000211
030124354015360500010012/09/202200000211
030124443016605700100024/08/202200002845
030124443017469600072031/08/202200001627
030124443017150600010008/09/202200000325
030124443017512900010008/09/202200000325
030124443016835100150014/09/202200000960
030124443017221900600019/09/202200001161
030124443015141600200008/09/202200000900
030124443034775200032415/09/202200002302
030124443017414900010008/09/202200000651
030124443015519500200031/08/202200001298
030124443017527700010014/09/202200000216
030124443017491200010014/09/202200000371
030124443017385100010014/09/202200000599
030124443017562500010008/09/202200000471
030124443015364800010014/09/202200000211
030124443015365600010014/09/202200000211
030124443015376100010014/09/202200000211
030124443015360500010014/09/202200000211
030124443015373700040015/09/202200001226
030124443015336200040015/09/202200001226
030128716034642000360012/09/202200001967
030128716001418400200029/09/202200001856
030128716015142400200006/09/202200001792
030128716017414900010006/09/202200000699
030128716017527700010006/09/202200000216
030128716017491200010006/09/202200000371
030128716015364800020012/09/202200000211
030128716015365600020012/09/202200000211
030128716015376100020012/09/202200000211
030128716015360500020012/09/202200000211
030128716015594200068706/09/202200002278
030128716017052600137406/09/202200001760
030129402016083000450012/09/202200001000
030129402016065200280026/09/202200001000
030129402034653500100008/09/202200001198
030129402034654300200026/09/202200001303
030129402034671300100008/09/202200001198
030129402015364800010012/09/202200000211
030129402015365600010012/09/202200000211
030129402015376100010012/09/202200000211
030129402015360500010012/09/202200000211
030129402015594200068826/09/202200002220
030133809015594200068824/08/202200002198
030133809017429700264129/08/202200003590
030134899016172100147026/09/202200001305
030134899016164000147029/08/202200001345
030134899034685300300005/09/202200001398
030134899015378800120019/09/202200001026
030134899016580800120005/09/202200001305
030134899017414900060029/08/202200000445
030134899015519500600005/09/202200001298
030134899017567602400019/09/202200000998
030134899034762002400014/09/202200000998
030134899017527700240012/09/202200000237
030134899017466100480005/09/202200000519
030134899034822800120019/09/202200000539
030134899017491200240005/09/202200000476
030134899017484000120005/09/202200000824
030134899017385100060019/09/202200000599
030134899015621300200019/09/202200001545
030134899015364800060026/09/202200000247
030134899015376100060026/09/202200000247
030134899015360500060026/09/202200000247
030134899015187400120005/09/202200000715
030134899015368000344426/09/202200001598
030134899017052600343512/09/202200001598
030138185034780900144013/09/202200001534
030138185034672100180013/09/202200001446
030138185016145400040213/09/202200001812
030138185017414900010013/09/202200000699
030138185017527700010013/09/202200000216
030138185017491200010013/09/202200000371
030138185015364800010013/09/202200000211
030138185015365600010013/09/202200000211
030138185015376100010013/09/202200000211
030138185015360500010013/09/202200000211
030140678017150600010005/09/202200000325
030140678017512900010005/09/202200000325
030140678017414900010005/09/202200000651
030140678017527700010005/09/202200000216
030140678017491200010005/09/202200000371
030140678017562500010005/09/202200000471
030140678015365600010005/09/202200000211
030140678015360500010005/09/202200000211
030140678015187400240005/09/202200000715
030142352034818000194017/08/202200001990
030142352016563800487813/09/202200002290
030142352034791400480706/09/202200002990
030142352034878300246317/08/202200003690
030142352034505900360031/08/202200000789
030142352015141600400026/09/202200000890
030142352015519500200017/08/202200001298
030142352017527700010006/09/202200000216
030142352017491200010006/09/202200000371
030142352017385100010006/09/202200000599
030142352015364800060026/09/202200000239
030142352015365600010013/09/202200000211
030142352015376100060026/09/202200000239
030142352015360500060026/09/202200000239
030142352034788400200031/08/202200001790
030145114015378800060021/09/202200001026
030145114017469600072028/09/202200001648
030145114034780900072027/09/202200001390
030145114034861900100027/09/202200000632
030145114016065200140028/09/202200000930
030145114001225400180016/08/202200001099
030145114017414900060006/09/202200000445
030145114017527700240021/09/202200000237
030145114017466100120021/09/202200000579
030145114017491200240021/09/202200000476
030145114017484000120028/09/202200000629
030145114017486600120021/09/202200000629
030145114034883000240006/09/202200000321
030145114017385100060021/09/202200000599
030145114015364800120027/09/202200000247
030145114015365600120027/09/202200000247
030145114015376100120027/09/202200000247
030145114015360500120027/09/202200000247
030145149016164000147016/08/202200001345
030145149016817300126030/08/202200001313
030145149034685300300030/08/202200001398
030145149017527700240030/08/202200000237
030145149017466100360016/08/202200000498
030145149015620500400014/09/202200001298
030145149015621300400014/09/202200001390
030145149015364800240014/09/202200000247
030145149015376100240014/09/202200000247
030145149015360500240014/09/202200000247
030148350015378800060014/09/202200001000
030148350017414900010014/09/202200000699
030148350017385100010014/09/202200000599
030148350015364800060014/09/202200000241
030148350015365600060014/09/202200000241
030148350015376100060014/09/202200000241
030148350015360500060014/09/202200000241
030148369034890200240001/09/202200000699
030148369017414900010001/09/202200000699
030148369017527700010001/09/202200000216
030148369017491200010001/09/202200000371
030148369034881300050028/09/202200002498
030148369016671500120008/09/202200003745
030150266017414900010014/09/202200000699
030150266017527700010014/09/202200000216
030150266017491200010014/09/202200000371
030150266015364800010014/09/202200000211
030150266015365600010014/09/202200000211
030150266015376100010014/09/202200000211
030150266015360500010014/09/202200000211
030150355016609000200005/09/202200000898
030150355034685300300018/08/202200001495
030150355034780900072005/09/202200001480
030150355016083000300002/09/202200000990
030150355016439900280024/09/202200001257
030150355034775200032405/09/202200002250
030150355017567600240005/09/202200001298
030150355017527700120030/08/202200000216
030150355017466100120024/09/202200000559
030150355017491200120030/08/202200000371
030150355034635700040002/09/202200001098
030150355034670500040002/09/202200001098
030150355034705100040002/09/202200001098
030150355017231600120015/09/202200000690
030150355015187400240002/09/202200000690
030151297034774400020116/08/202200002250
030151297017414900010014/09/202200000699
030151297017527700010014/09/202200000216
030151297017491200010014/09/202200000371
030151297034707800120014/09/202200002998
030151297015379600130014/09/202200000968
030151297015364800010014/09/202200000211
030151297015365600010014/09/202200000211
030151297015376100010014/09/202200000211
030151297015360500010014/09/202200000211
030151297015594200068820/08/202200002198
030151297015336200040016/08/202200001198
030152749015355900296122/08/202200001533
030152749015368000068722/08/202200001840
030152749015336200320022/08/202200001226
030153206017150600010025/08/202200000349
030153206017508000010021/09/202200000199
030153206017491200010021/09/202200000371
030153206015364800010021/09/202200000211
030153206015365600010021/09/202200000211
030153206015376100010021/09/202200000211
030153206015360500010021/09/202200000211
030154083017508000010021/09/202200000199
030154083017491200010021/09/202200000371
030154083015364800010021/09/202200000211
030154083015365600010021/09/202200000211
030154083015376100010021/09/202200000211
030154083015360500010021/09/202200000211
030154318017496300150012/09/202200000998
030154318017301000010012/09/202200001199
030154318017527700010012/09/202200000216
030154318017491200010012/09/202200000371
030154318015364800010012/09/202200000211
030154318015365600010012/09/202200000211
030154318015376100010012/09/202200000211
030154318015360500010012/09/202200000211
030154318034635700040027/09/202200001098
030154318034670500040027/09/202200001098
030154318034705100040027/09/202200001098
030154318017563300040027/09/202200001098
030154954016563800084824/09/202200002290
030154954017508000010021/09/202200000199
030154954017491200010021/09/202200000371
030154954015364800010021/09/202200000211
030154954015365600010021/09/202200000211
030154954015376100010021/09/202200000211
030154954015360500010021/09/202200000211
030155411015364800240015/08/202200000239
030155411015376100240015/08/202200000239
030155411015360500120015/08/202200000239
030156930017150600010013/09/202200000325
030156930017512900010013/09/202200000325
030156930034861900010018/08/202200000549
030156930017414900010013/09/202200000651
030156930017527700010013/09/202200000216
030156930017491200010013/09/202200000371
030156930017385100010013/09/202200000599
030156930017562500010013/09/202200000471
030156930015364800010013/09/202200000211
030156930015365600010013/09/202200000211
030156930015376100010013/09/202200000211
030156930015360500010013/09/202200000211
030157147034685300400005/09/202200001398
030157147015378800060026/09/202200001026
030157147017469600360005/09/202200001398
030157147034861900220026/09/202200000632
030157147015141602000026/09/202200000890
030157147017567601200026/09/202200000998
030157147017385100100005/09/202200000599
030157147034635700040026/09/202200001098
030157147034670500040026/09/202200001098
030157147034705100040026/09/202200001098
030157147017563300040026/09/202200001098
030157147015541100047005/09/202200001234
030157511015734100060024/09/202200002477
030157511016067900280008/09/202200001307
030157511016817300630027/08/202200001206
030157511034685303500027/08/202200001398
030157511016637500200012/09/202200000378
030157511015817800120015/08/202200001170
030157511015378800120015/09/202200000890
030157511017469600072027/08/202200001298
030157511034780900360012/09/202200001298
030157511034861900220017/08/202200000569
030157511016065214000012/09/202200000930
030157511016439901260024/09/202200001149
030157511016580800600024/09/202200001149
030157511016835105250008/09/202200000798
030157511015141601200026/09/202200000890
030157511034834100036015/09/202200002198
030157511034774400020115/09/202200002098
030157511034775200064815/09/202200002098
030157511034836800240015/09/202200001129
030157511034762004800015/09/202200000998
030157511017466100720008/09/202200000498
030157511034822800480015/09/202200000498
030157511017484000360024/09/202200000659
030157511017486600120015/09/202200000659
030157511034707800240024/09/202200002990
030157511034679900120008/09/202200001553
030157511034856200010008/09/202200016900
030157511034828700060015/09/202200001235
030157511034653500100008/09/202200001198
030157511015187400240015/09/202200000598
030157511015594200068824/09/202200002098
030157570017567600120014/09/202200001298
030157570017527700010014/09/202200000216
030157570017491200010014/09/202200000371
030157570015364800010014/09/202200000211
030157570015365600010014/09/202200000211
030157570015376100010014/09/202200000211
030157570015360500010014/09/202200000211
030157953034780900072014/09/202200001480
030157953017150600010008/09/202200000325
030157953017512900010008/09/202200000325
030157953015141600200008/09/202200000879
030157953017414900010008/09/202200000651
030157953017527700010008/09/202200000216
030157953034822800120008/09/202200000520
030157953017491200010008/09/202200000371
030157953017562500010008/09/202200000471
030157953015364800010014/09/202200000211
030157953015365600010014/09/202200000211
030157953015376100010014/09/202200000211
030157953015360500010014/09/202200000211
030158283034861900120028/09/202200000616
030158283034890200120028/09/202200000699
030158283017301000040028/09/202200001202
030158283017484000120001/09/202200000803
030158283015365600010001/09/202200000211
030158283015360500010001/09/202200000211
030158283015368000068808/09/202200001816
030158283017052600068702/09/202200001808
030158283015377000027028/09/202200001949
030158690016609000200002/09/202200000898
030158690017569200019417/08/202200003120
030158690015378800060017/08/202200000990
030158690017469600072017/08/202200001590
030158690015141600200001/09/202200000869
030158690034774400020101/09/202200002250
030158690017414900010001/09/202200000699
030158690017527700010001/09/202200000216
030158690017491200010001/09/202200000371
030158690015365600010001/09/202200000211
030158690015360500010001/09/202200000211
030158836015364800010023/09/202200000211
030158836015365600010023/09/202200000211
030158836015376100010023/09/202200000211
030158836015360500010023/09/202200000211
030158895034843000708329/09/202200003090
030158895034791400460929/08/202200003090
030158895016686300665528/09/202200002690
030158895015141601000005/09/202200000879
030158895017414900010005/09/202200000699
030158895017527700010005/09/202200000216
030158895017491200010005/09/202200000371
030159239016609000200002/09/202200000898
030159239034780900072026/09/202200001480
030159239016065200140008/09/202200000990
030159239016580800120002/09/202200001259
030159239034775200032405/09/202200002250
030159239017414900010005/09/202200000699
030159239015519500400019/09/202200001298
030159239017050000200031/08/202200001298
030159239017527700010005/09/202200000216
030159239017491200010005/09/202200000371
030159239015379600520022/09/202200000390
030159239015365600010005/09/202200000211
030159239015360500010005/09/202200000211
030159239034635700040005/09/202200001098
030159239034670500040005/09/202200001098
030159239034705100040005/09/202200001098
030159239017563300040026/08/202200001098
030159239015368000068827/09/202200001798
030159239015541100095322/09/202200001190
030160865017469600072022/08/202200001627
030160865017496300300013/09/202200000998
030160865016145400040213/09/202200001812
030160865017414900010013/09/202200000699
030160865017527700010013/09/202200000216
030160865017491200010013/09/202200000371
030161381015734100120024/09/202200002477
030161381016067900840009/09/202200001307
030161381016817300378027/08/202200001206
030161381034685301500027/08/202200001398
030161381016637500600012/09/202200000378
030161381015817800120015/08/202200001170
030161381015378800240015/09/202200000890
030161381017469600072027/08/202200001298
030161381034780900360015/09/202200001298
030161381034861900440017/08/202200000569
030161381016456900300009/09/202200001149
030161381016065202800012/09/202200000930
030161381016439901260024/09/202200001149
030161381016580800600024/09/202200001149
030161381016835104500009/09/202200000798
030161381015141602400026/09/202200000890
030161381034834100072012/09/202200002198
030161381034774400040315/09/202200002098
030161381034775200064815/09/202200002098
030161381034836800240009/09/202200001129
030161381034762003600015/09/202200000998
030161381017466100480012/09/202200000498
030161381034822800480015/09/202200000498
030161381017484000120024/09/202200000659
030161381034707800600009/09/202200002990
030161381034679900360015/09/202200001553
030161381034856200020009/09/202200016900
030161381017231600240015/09/202200000598
030161381015187400120027/08/202200000598
030161381015594200068712/09/202200002098
030161845034685302000016/08/202200001398
030161845017469602160006/09/202200001290
030161845016835104500015/09/202200000899
030161845034836801440027/09/202200000598
030161845034889901680027/09/202200000598
030161845017414907200029/08/202200000399
030161845017527700010016/08/202200000216
030161845017491200010016/08/202200000371
030161845015364800010016/08/202200000211
030161845015376100010016/08/202200000211
030161845015360500010016/08/202200000211
030163350017469600072015/08/202200001590
030163350016065200140029/08/202200000990
030163350034822800120012/09/202200000520
030163350034883000240012/09/202200000310
030163660034890200240029/08/202200000699
030163660034822800120029/08/202200000520
030163660015364800010023/09/202200000211
030163660015365600010023/09/202200000211
030163660015376100010023/09/202200000211
030163660015360500010023/09/202200000211
030165514034685300400015/08/202200001550
030165514016563800650326/08/202200002390
030165514015364800010023/09/202200000211
030165514015365600010023/09/202200000211
030165514015376100010023/09/202200000211
030165514015360500010023/09/202200000211
030165514016895500065815/08/202200003990
030166006017150600010013/09/202200000325
030166006017512900010013/09/202200000325
030166006034861900010018/08/202200000549
030166006017414900010013/09/202200000651
030166006017527700010013/09/202200000216
030166006017491200010013/09/202200000371
030166006017385100010013/09/202200000599
030166006017562500010013/09/202200000471
030166006015364800010013/09/202200000211
030166006015365600010013/09/202200000211
030166006015376100010013/09/202200000211
030166006015360500010013/09/202200000211
030166006015368000068913/09/202200001598
030166006015594200344029/09/202200001998
030166014017150600010013/09/202200000325
030166014017512900010013/09/202200000325
030166014034861900010018/08/202200000549
030166014017414900010013/09/202200000651
030166014017527700010013/09/202200000216
030166014017491200010013/09/202200000371
030166014017385100010013/09/202200000599
030166014017562500010013/09/202200000471
030166014015364800010013/09/202200000211
030166014015365600010013/09/202200000211
030166014015376100010013/09/202200000211
030166014015360500010013/09/202200000211
030166014015368000068913/09/202200001598
030166022017150600010013/09/202200000325
030166022017512900010013/09/202200000325
030166022034861900010018/08/202200000549
030166022017414900010013/09/202200000651
030166022017527700010013/09/202200000216
030166022017491200010013/09/202200000371
030166022017385100010013/09/202200000599
030166022017562500010013/09/202200000471
030166022015364800010013/09/202200000211
030166022015365600010013/09/202200000211
030166022015376100010013/09/202200000211
030166022015360500010013/09/202200000211
030166022015368000068913/09/202200001598
030166022015594200206423/09/202200001998
030166561017508000010021/09/202200000199
030166561017491200010021/09/202200000371
030166561015364800010021/09/202200000211
030166561015365600010021/09/202200000211
030166561015376100010021/09/202200000211
030166561015360500010021/09/202200000211
030166987017508000010021/09/202200000199
030166987017491200010021/09/202200000371
030166987015364800010021/09/202200000211
030166987015365600010021/09/202200000211
030166987015376100010021/09/202200000211
030166987015360500010021/09/202200000211
030168491017150600010025/08/202200000349
030168491017508000010021/09/202200000199
030168491017491200010021/09/202200000371
030168491015364800010021/09/202200000211
030168491015365600010021/09/202200000211
030168491015376100010021/09/202200000211
030168491015360500010021/09/202200000211
030169005016083000300029/09/202200000990
030169005016065200280022/09/202200000990
030169005016439900140025/08/202200001098
030169005034505900360025/08/202200000869
030169005015141600400008/09/202200000879
030169005017414900010001/09/202200000699
030169005034873200040015/09/202200002590
030169005017558700050029/09/202200002690
030169455016083000150028/09/202200001026
030169455016065200140016/08/202200001026
030169790034505900180023/08/202200000869
030169790015141600400017/09/202200000879
030169790017527700010017/09/202200000216
030169790017491200010017/09/202200000371
030169790017385100010017/09/202200000599
030169790015364800010017/09/202200000211
030169790015365600010017/09/202200000211
030169790015376100010017/09/202200000211
030169790015360500010017/09/202200000211
030169943017508000010021/09/202200000199
030169943017491200010021/09/202200000371
030169943015364800010021/09/202200000211
030169943015365600010021/09/202200000211
030169943015376100010021/09/202200000211
030169943015360500010021/09/202200000211
030171115016563801339717/09/202200002290
030171115034791400448129/08/202200003090
030171115016686300674328/09/202200002690
030171115015364800010014/09/202200000211
030171115015365600010014/09/202200000211
030171115015376100010014/09/202200000211
030171115015360500010014/09/202200000211
030171557015378800060023/08/202200001013
030171557017414900030023/08/202200000699
030171557015364800010023/09/202200000211
030171557015365600010023/09/202200000211
030171557015376100010023/09/202200000211
030171557015360500010023/09/202200000211
030172421034505900180026/08/202200000889
030172421017414900010015/09/202200000699
030172421017538200240026/08/202200001098
030172421034762000240026/08/202200001098
030172421017527700010015/09/202200000216
030172421034822800120015/09/202200000532
030172421017491200010015/09/202200000371
030172421017484000120015/09/202200000813
030172421017385100010015/09/202200000599
030172421015364800010015/09/202200000211
030172421015365600010015/09/202200000211
030172421015376100010015/09/202200000211
030172421015360500010015/09/202200000211
030172480034901100334722/09/202200002490
030172480016563800663228/09/202200002290
030172480016439900280028/09/202200001257
030172480017414900010008/09/202200000699
030172480017527700010008/09/202200000216
030172480017491200010008/09/202200000371
030172499016101200360019/09/202200000589
030172499016065200140030/08/202200000990
030172499034505900180030/08/202200000869
030172499017414900010005/09/202200000699
030172499015519500200022/09/202200001298
030172499017567600480026/09/202200001098
030172499017527700010005/09/202200000216
030172499017491200010005/09/202200000371
030172499017484000120030/08/202200000795
030172499034653500050030/08/202200001198
030172499034654300050030/08/202200001198
030172499034671300050030/08/202200001198
030172499034881300020030/08/202200002998
030172499015365600010005/09/202200000211
030172499015360500010005/09/202200000211
030172499034635700040030/08/202200001098
030172499034670500040030/08/202200001098
030172499034705100040030/08/202200001098
040000000  000000000000000000000000000000000000000000000000          
050001180MATTOS & BENIN LTDA                          DEVITI CONFECCOES             0270JOAO                     00/00/0000TRAVESSA CANELA, 160                         PLANALTINA          00107  005154 3315 5666   54 99101 5769  00928343320001900090502S                  000000000000000000400                    000232000000000000000000000000000027/09/20220020000000000000S091/0122644 99062-255mariaiveteamarante@yahoo.com.br                   001J39337049015N160                                                                                                                                                                                                                                             
050004995IEDO DE ALMEIDA & CIA LTDA                   MERCADO DUQUE                 0010ROMULO/ANA               04/01/1947RUA FREI CANECA, 895                         VL CRUZEIRO         00107  005154 33117099    99792890       00920409220001400080104S                  000000000000000000200                    000171840000000000000380000000000005/09/20220030000000000000S091/0085749 99070-090iedoalmeida@yahoo.com.br                          001J06167004072N895                                                                                                                                                                                                                                             
050006602WANDERLEI BERNARDI                           SUP.BERNARDI                  0240SUSI                     24/11/1962AV LEONIDIA DA CUNHA FIORI 800               MAGGI DE CESAR      00107  005154 33152115                   00950650410001720090502S                  000000000000000000400                    000218140000000000000036000000000023/09/20220050000000000000S091/0157146 99064-250mercadobernardipf@hotmail.com                     001J46820108087N800                                                                                                                                                                                                                                             
050012661SERGIO JOSE ALESSI                           MERCADO PARANA                0180TANIA                    00/00/0000RUA GUILHERME BOOR N 260                     SAO JOSE            00107  005154-3311-2130                  00018567700001010030502S                  000000000000000000300                    000406960000009700000147000000000027/09/20220030000000000000S091/0195056 99052-330super_parana@hotmail.com                          001J10000000000N260                                                                                                                                                                                                                                             
050014273COMERCIAL TIO PATINHAS LTDA                                                0255ANILVO                   00/00/0000AV.ASPIRANTE JENNER, 489                     STA. MARIA          00114  00515433135510                    00012677210001250090502S                  000000000000000000200                    000941960000000000000589000000000016/09/20220020000000000000S091/0187185 99074-360xml@comercialtiopatinhas.com.br                   001J10000000000N489                                                                                                                                                                                                                                             
050019275RODIO & RODIO LTDA                           RODIO & RODIO                 0110LUIZ                     09/01/1973AV.BRASIL N 1850                             BOQUEIRAO           00107  005154 33142822                   00900066360001330090502S                  000000000000000000200                    000008440000000000000477000000000023/09/20220010000000000000S091/0090289 99025-003vendasrodio@gmail.com                             001J76139239087N1850                                                                                                                                                                                                                                            
050019631MILTON MORALES DE MOURA                                                    0050MILTON                   00/00/0000RUA CORONEL GERVASIO ANNES 532               VILA LUIZA          00107  005154 33121029    54 99143 0661  00915942590001630090502S                  000000000000000000200                    000139550000000000000024000000000026/09/20220020000000000000S091/0107637 99072-630girotto31@terra.com.br                            001J23478942004N532                                                                                                                                                                                                                                             
050024988ANTONIO LOCATELLI & CIA LTDA                                               0020DIRCEU                   00/00/0000RUA PAROBE, 147                              CRUZEIRO            00128  005154 33114735    91214924       00688351230001860050502S                  000000000000000000200                    000548420000000000000087000000000029/09/20220030000000000000S091/0157553 99070-230mercadoparobe@ibest.com.br                        001J10000000000N147                                                                                                                                                                                                                                             
050025224ROBERTO CARLOS ELSING & CIA LTDA             MERC. PAROBE III              0090ROBERTO                  22/12/1972AV.MIGUELZINHO LIMA 93                       SANTA MARTA         00107  005154 33144412                   00025456080001270120502S                  000000000000000000200                    000179420000000000000080000000000005/09/20220020000000000000S091/0205329 99036-050robertoelsing@yahoo.com.br                        001J68623038053N93    LIMITE PELO SERASA $27000.00                                                                                                                                                                                                              
050025704NAIR TAUFER-ME                               SUP. TAUFFER                  0250NAIR                     00/00/0000RUA JOAO LUIZ LANGARO,110                    V. PLANALTINA       00128  005154 33151847    54 9 8418 0207 00941236010001350090502S                  000000000000000000400                    000532070000000000000160000000000028/09/20220020000000000000S091/0142629 99062-060 mercado.tauffer@terra.com.br                     001J10000000000N110                                                                                                                                                                                                                                             
050034525SUPERMERCADO MARCOLAN LTDA                   SUPERM.MARCOLAN               0380CELSO                    19/05/1953RUA PADRE ANTONIO VIEIRA, 470                SAO JOSE            00121  005154-3311-9923                  00913880740001000120104S                  000000000000000000600                    000658980000015000001745000000000027/09/20220050000000000000S091/0106886 99052-000supermarcolan@hotmail.com                         001J25355180078N470                                                                                                                                                                                                                                             
050045640LEANDRO LAGO                                 PANIF.LAGO PAO                0060ELISA                    26/12/0000GAL NETTO 258                                CENTRO              00107  005154 33127901    54 9 9703 9835 00945914840001340090501S                  000000000000000000200                    000747690100000200000040000000000005/09/20220030000000000000S091/0205868 99010-023edsouza@terra.com.br                              001J62324268000N258   LIMITE $99.900.00                                                                                                                                                                                                                         
050052124BUCKER SOUSA MERCADO SANTO ANTONIO LTDA      MERCADO SANTO ANTONI          0190DEUSDERIO (BETO)         17/05/1957RUA RODRIGUES ALVES 774                      PETROPOLIS          00121  005154 33156597    96231167       00030211120001170090502S                  000000000000000000300                    000769980000000000000150000000000027/09/20220010000000000000S091/0302014 99050-060betoavila@bol.com.br                              001J40297950053N774   LIMITE PELO SERASA-$15540,00                                                                                                                                                                                                              
050055700CESAR COSTA                                  PADARIA DOCE SABOR            0330CESAR                    00/00/0000AV.BRASIL, 2180                              BOQUEIRAO           00107  005154 33141976    54 9 8110 1617 00934659380001680090501S                  000000000000000000000                    000757180000000000000405000000000014/09/20220020000000000000S091/0165386 99025-004docepao@terra.com.br                              001J10000000000N2180                                                                                                                                                                                                                                            
050057428MERCADO TRES COQUEIROS LTDA                  MERCADO 3 COQUEIROS           0060GELSON LUDWIG            00/00/0000RUA SAO TIAGO 454                            VILA LUIZA          00114  005154 99052122    99052122       00040061540001410030502S                  000000000000000000200                    000602640000000000000101000000000005/09/20220010000000000000S0910222320  99072-730gelsonludwig@terra.com.br                         001J01763649946N454                                                                                                                                                                                                                                             
050061069LEONARDI & STIEVEN E CIA LTDA                MERCADO LEONARDI              0165AIRTON                   15/05/1972RUA GENERAL PORTINHO 74                      SAO JOSE            00107  005154 33126180                   00044156930001340090502S                  000000000000000000300                    000069990000000000000060000000000022/09/20220010000000000000S091/0227586 99052-110simonepfb@ibest.com.br                            001J39328457068N74                                                                                                                                                                                                                                              
050062006MARLES COM.DE ALIM.E CONFECCOES LTDA         MERCADO CONFIANCA             0045ZENO                     14/11/1954RUA BENEDITO ACAUA 1636                      VL LUIZA            00107  00515433144115                    00004022210001960090502S                  000000000000000000200                    000014140100000000000000000000000021/09/20220020000000000000S091/0175217 99072-010zenororig@gmail.com                               001J21112495053N1636                                                                                                                                                                                                                                            
050062332NELSON PASCOAL LUSA                                                        0455NELSON                   06/04/1971RUA AMERICO VESPUCIO 43                      PRQ FARROUPILH      00107  005154 991552478   54 991552478   00032799190001540090504S                  000000000000000000600                    000014140000000000000000000000000021/09/20220015000000000000S091/0212635 99051-140distribuidora_2@hotmail.com                       001J60281456020N43    LIMITE PELO SERASA $12150.00                                                                                                                                                                                                              
050063878VALMIR GIARETTA                              MERCADO GIARETTA              0405VALMIR                   00/00/0000RUA CORONEL CHICUTA, 1227                    LUCAS ARAUJO        00107  005154 35841602                   00045777100001300090502S                  000000000000000000600                    000014140000000000000200000000000021/09/20220020000000000000S0910229627  99010-052valmirgiaretta@hotmail.com                        001J84339870978N1227  LIMITE PELO SERASA $6400.00                                                                                                                                                                                                               
050064920COMERCIO DE ALIM SAO ROQUE LTDA              ARMAZEM SAO ROQUE             0205TINA                     00/00/0000AV PRESIDENTE VARGAS, 2639                   SAO CRISTOVAO       00200  005154 33156100                   00925422810001220000503S                  000000000000000000300                    000296300000000000000070000000000027/09/20220010000000000000N091/0243433 99064-000nazarenodomingos@via-rs.net                       001J23253720063N2639  NO MERCADO ESTA COM 77 CH S/FUNDO-ULTIMA MARCO 2015-51 PROTESTOS ULT.ABR/2015 ACAO JUDICIAL 1 DEZ/2011-REST.FINANCEIRAS 6 ULT.ABRIL/2012.                                                                                                 
050065030ODAIR OLIVEIRA DA SILVA                      KI SABORES                    0175ODAIR OLIVEIRA           12/02/1975AV.NOVA OLINDA 532                           SAO JOSE            00114  005154 33131190    991625517      00045454280001700090403S                  000000000000000000300                    000448750000000000000000000000000029/09/20220010000000000000S091/0229201 99052-020kisabores75@hotmail.com                           001J68548850000N532                                                                                                                                                                                                                                             
050065528S.A.G LUVISA                                 SUPERM.BOQUEIRAO              0365BETO                     26/03/1966AV.BRASIL OESTE, 2884                        BOQUEIRAO           00128  005154-3315-5525                  00053310160001090120104S                  000000000000000000500                    001257550000006800000507000000000006/09/20220030000000000000S091/0246238 99025-604nfesupermercadoboqueirao@yahoo.com.br             001J49347012068N2884                                                                                                                                                                                                                                            
050072311AGOMAR CASARIN                                                             0415AGOMAR                   08/02/1972R.JOAO LANGARO,471                           PLANALTINA          00107  005154 33152612                   00057664830001530030502S                  000000000000000000400                    000145700100000000000040000000000008/09/20220010000000000000S091/0252475 99062-060mercadocasarin@hotmail.com                        001J58217240078N471   LIMITE PELO SERASA $10600.00                                                                                                                                                                                                              
050077119SUPERMERCADO CIGOGNINI LTDA                                                0400LODI                     00/00/0000AV. SINIMBU, 699                             PQ FARROUPILHA      00128  005154 33156652    54 84029116    00070110580001800050502S                  000000000000000000600                    001103330000031700001145000000000021/09/20220080000000000000S091/0262535 99051-000smcigognini@gmail.com                             001J83466398053N699                                                                                                                                                                                                                                             
050080179FERNANDO TREVISAN & CIA LTDA                 BOUTIQUE DA CARNE             0000FERNANDO                 20/09/0000AV.BRASIL OESTE 1971                         BOQUEIRAO           00107  00513312 1045      54 984431054   00052461580001600090503S                  000000000000000000300                    003098160000000000000000000000000023/09/20220025000000000000S0910245460  99025-054boutiquedacarne2021@gmail.com                     001J02239697024N1971  LIMITE SERASA 62100.00                                                                                                                                                                                                                    
050080330SUPERMERCADO NATALIA LTDA                    MERCADO ITALIA                0035JOSE                     14/06/1986GAL DALTRO FILHO 601                         LUCAS ARAUJO        00200  005154 33135328                   00075660300001090040502S                  000000000000000000200                    000243210000001400000694000000000005/09/20220000100000000000N091/0270414 99074-020mercadoitalia@bol.com.br                          001J83032215072N601                                                                                                                                                                                                                                             
050082619FABIO CASTRO MERCADO                         MERCADO PORTELLA              0435GOI                      27/06/2006AV. LUIZA IZABEL RIBEIRO 100                 NSA SEN.APAREC      00107  005154 33141863    0              00075094920001940090502S                  000000000000000000600                    000392220000000000000025000000000015/09/20220020000000000000S0910271070  99034-010mercado.portella@hotmail.com                      001J81538529068N100                                                                                                                                                                                                                                             
050082953LUCIANA DEBOVI                               LUCIANA DEBOVI                0030LUCIANA DEBOVI           18/07/2006AV.ASPIRANTE JENNER 149                      SANTA MARIA         00114  005133130269       3312 0355      00044033990001020090104S                  000000000000000000200                    000541920000000000000000000000000029/09/20220030000000000000N0910366837  99074-360lucianadebovi@hotmail.com                         001J92562558049N149   LIMITE PELO SERASA $4320.00                                                                                                                                                                                                               
050083240MARIA I. PULLI                               MERCADO GIARETTA              0410VALMIR                   11/12/0000RUA RIACHUELO 370                            SAO CRISTOVAO       00114  005154 33153015                   00059554650001100080502S                  000000000000000000600                    000014140000000000000150000000000021/09/20220010000000000000S0910269890  99010-000valmirgiaretta@hotmail.com                        001J84339870978N370                                                                                                                                                                                                                                             
050087246VALDERI MORESCHI                             MERCADO MORESCHI              0420VALDERI                  31/01/1966R ARATINGA.682                               VL RICCI            00107  005133155957       99940428       00030959590001460090502S                  000000000000000000500                    000128700000000000000000000000000026/09/20220020000000000000S0910211418  99060-190pasini_borelli@terra.com.br                       001J59187107015N682   MAIOR FATURA NO MERCADO-$2000.00                                                                                                                                                                                                          
050088315SALLA & SALLA LTDA                           MANOS LANCHES                 0000LUCELIA                  06/10/0000AV PRES VARGAS  1230                         SAO CRISTOVAO       00107  005154 3315 3314   54 9 9160 8501 00050213390001980030403S                  000000000000000000400                    000167020100000000000000000000000015/09/20220020000000000000S0910234850  99070-000luceliasalla@hotmail.com                          001J55408524000N1230                                                                                                                                                                                                                                            
050088951SUPERMERCADO ALINE ELISANDRA LTDA            S. DORNELLES SAO CRI          0210SANDRA . HAMILTO         00/00/0000AV PRES VARGAS 2904                          SAO CRISTOVAO       00114  005154 33123180    0              00088830730001800090104S                  000000000000000000300                    000173350000001300000346000000000028/09/20220010000000000000S0910283770  99064-000edcsouza@terra.com.br                             001J49380842015N2904                                                                                                                                                                                                                                            
050092606MERCADO MESA CASA LTDA                       MERCADO MESA CASA             0140GELSON                   22/07/7700R.  ANA NERI 582                             SAO LUIZ GONZA      00107  005154 33110611    91166455       00073764890001400090502S                  000000000000000000300                    000182140000000000000050000000000021/09/20220020000000000000S0910267006  99054-360mercadomesacasa@gmail.com                         001J72712813049N582   LIMITE PELO SERASA=76000.00                                                                                                                                                                                                               
050096610SIDNEI VARGAS FRANCO                         MERCADO FRANCO                0380SIDNEI E SONIA           08/10/1975RUA DR.PHILIPPE DA CUNHA 339                 JARDIM AMERICA      00114  005133113084       0              00107217680001080030104S                  000000000000000000600                    000692970000000000000000000000000023/09/20220015000000000000S0910299447  99036-240sidneivargasfranco@terra.com.br                   001J89729307091N339   LIMITE PELO SERASA-$720.00-ESTA COM ALGUMAS RESTRICOES                                                                                                                                                                                    
050097306IDESEI COMERCIO DE ALIMENTOS LTDA            ARMAZEN 350                   0430IDEISE                   00/00/0000AV PRES VARGAS 350                           CENTRO              00107  005154 36015508    9 96125362     00108060150001030090502S                  000000000000000000600                    000014140000000000000080000000000021/09/20220010000000000000S0910300453  99070-000dianealba@yahoo.com.br                            001J92063969000N350   LIMITE PELO SERASA $8800.00                                                                                                                                                                                                               
050101966HOCKMULLER & CIA LTDA                        MERCADO AMIZADE               0235LAIR E EVANDRO           22/11/8500AV JORNALISTA MUCIO DE CASTRO                CESAR SANTOS        00121  005154 33153281    0              00111925420001200090502S                  000000000000000000400                    000629240000000000000200000000000013/09/20220050000000000000S0910304530  99064-220supermercadoamizade1@hotmail.com                  001J01197805001N20                                                                                                                                                                                                                                              
050103934LEMAN COM VAREJISTA DE ALIM.E ELETRODOMESTICOMERCADO TODODIA               0160JONAS                    11/03/2010RUA AV PE ANTONIO VIERA 875                  SAO JOSE            00121  005133125802       91395966       00110926140001670090502S                  000000000000000000300                    002497350000000000000130000000000019/09/20220040000000000000S0910303649  99052-000neusacontamak@brturbo.com.br                      001J74366963000N875   LIMITE PELO SERASA $18480.00                                                                                                                                                                                                              
050113913IARA LOURDES FALK ME                         PADARIA BOM PALADAR           0020LOURDES                  11/02/1968RUA JOAO LANGARO 408                         PLANALTINA          00114  005133134695       081411214      00105549770001040030501S                  000000000000000000200                    000401620000000000000000000000000026/09/20220020000000000000S0910297142  99062-200lourdesfalk@uol.com.br                            001J64123596053N408   LIMITE NO SERASA-$ 5200.00                                                                                                                                                                                                                
050114138SUPERMERCADO CIGOGNINI LTDA                                                0395WILLIAN                  08/07/1990AV SINIMBU 172                               PARQUE FARROUP      00128  005105433144433    0              00070110580002600090502S                  000000000000000000600                    000522480000000000000000000000000006/09/20220010000000000000S0910321353  99010-000smcigogninifilial@gmail.com                       001J01576620042N172                                                                                                                                                                                                                                             
050115533LUCIANO DIAS E CIA LTDA                      PANIFICADORA S MARIA          0650ARI DIAS                 07/12/1974AV ASPIRANTE JENNER 112                      SANTA MARIA         00114  005133146396       99554666       00061725290001790120501S                  000000000000000000500                    000305860000000000000005000000000026/09/20220010000000000000S0910259038  99074-360diasluciano-pf@hotmail.com                        001J53611160091N112   CLIENTE ANTIGO JBS.PONTUAL-100%.MAIOR CREDITO-1360.00.MAIOR FATURA-1160.00                                                                                                                                                                
050115835CASARIN GUERRA SUPERMERCADO LTDA             SUPERMERCADO CASARIN          0260ALVARO                   16/06/1969JOAO LANGARO 115                             PLANALTINA          00128  005133158810       84086940       00120634210001400120104S                  000000000000000000400                    000666560000000000000218000000000028/09/20220020000000000000S0910309850  99062-060casarinsupermercado@gmail.com                     001J49377213053N115                                                                                                                                                                                                                                             
050120545KEVIN AMBROZI ME                             SUPER SUL                     0185KEVIM                    24/04/1980OTAVIO ROCHA 1265                            PETROPOLIS          00107  005154 33173003    96028558       00179211550001630090502S                  000000000000000000300                    000169310000000000000031000000000026/09/20220030000000000000S0910331456  99051-360kevin.ambrozi@yahoo.com.br                        001J03629935052N1265  LIMITE PELO SERASA $9600.00                                                                                                                                                                                                               
050124354A A PICOLO  ME                               MERCADO PICOLO                0200ZINHO                    20/09/2014DIRCEU SANDER 730                            SAO CRISTOVAO       00128  005136323302       96763005       00199003090001660120502S                  000000000000000000300                    000333720000000000000000000000000026/09/20220060000000000000S091/0337632 99060-010aapicolo@hotmail.com                              001J39197026034N730                                                                                                                                                                                                                                             
050124443SOLANGE MACIEL DA SILVA 00293807078          FRUTEIRA COSTA E SIL          0245SOLANGE                  08/04/2014DOLORES TORRIANI 355                         PLANALTINA          00121  005133171718                      00194877480001990090502S                  000000000000000000400                    000338120000000000000000000000000019/09/20220030000000000000S0910352194  99062-630eletricadfcosta_@hotmail.com                      001J00293807078N355   30/09/2015 ALTEREI PARA BOLETO POR REINSCIDENCIA DE DEVOLOCOES MOTIVO NF A VISTA, JA ESTA COMPRANDO APRAZO ATEMPO. ROSANE                                                                                                                 
050128716ALAOR ASSIS DA COSTA ME                      NOSSO PAO PADARIA E           0010ALAOR                    17/07/2015FAGUNDES DOS REIS 323                        CENTRO              00107  005133131297       99823472       00210277980001350120501S                  000000000000000000200                    000569900000000000000000000000000029/09/20220030000000000000S0910341346  99010-070alaor.assisdacosta@gmail. com                     001J42705967087N323   limite $7040.00                                                                                                                                                                                                                           
050129402PADARIA O PAO LTDA ME                        PADARIA O PAO                 0030BERNARDETE               16/03/2015AVENIDA BRASIL OESTE 746                     CENTRO              00107  00513313-3744      9999-1525      00202777690001690090501S                  000000000000000000200                    000658330000000000000000000000000026/09/20220020000000000000S0910338906  99010-001betebiazus@hotmail.com                            001J64123596053N746   LIMITE PELO SERASA-$3700.00                                                                                                                                                                                                               
050133809FUNDACAO BENEFICIENTE LUCAS ARAUJO           LAR DA MENINA                 0360ELIS                     10/11/2017AV.PRESIDENTE VARGAS 317                     SAO CRISTOVAO       00107  00513313 2775                     00920341560001010080302S                  000000000000000000600                    000948120000000000000000000000000029/08/20220020000000000000SISENTO      99070-000elis@fundacaolucasaraujo.com                      001J36071706068N317                                                                                                                                                                                                                                             
050134899SUPERMERCADO CRUZEIRO LTDA                   SUPERMERCADO CRUZEIR          0015THIAGO                   01/02/2016RUA AQUIDABAN 376                            VILA CRUZEIRO       00128  00513313-5066      9122-0418      00238663020001420120104S                  000000000000000000200                    001299820000000000000000000000000026/09/20220030000000000000S0910349738  99070-110super_cruzeiro@hotmail.com                        001J01492323063N376   ANTIGO CLIENTE DOMIANA.TBM SAO DONOS DO MERCADO PARANA                        FORN-DISFONTE,DISMAELLI,JBS                                                                                                                                 
050138185MARCIA APARECIDA CHAVES BRUSTULIN-ME         MERCADO DO TREVO              0055EVERTON                  24/05/2016RUA EDMUNDO TREIN 83                         VILA JARDIM         00128  005130451613       91542595       00134585120001480090502S                  000000000000000000200                    000575320000000000000000000000000013/09/20220020000000000000S091/0351392 99072-660evertondeconto@hotmail.com                        001J70279403020N83                                                                                                                                                                                                                                              
050140678R DE F WESSOLOWSKI                           MERCADO SANTOS                0025EDINEI                   08/09/2016RUA GUILHERME LUIZ SPERRY 210                SANTA MARIA         00107  0051054 33152510   054 91575870   00251349440001820030104S                  000000000000000000200                    000199410000000000000000000000000005/09/20220015000000000000S091/0353050 99054-540santosmercado2016@gmail.com                       001J46298260025N210   EDINEI RESPONSAVEL PELO PAGAMENTO                                                                                                                                                                                                         
050142352JR DE MOURA MINIMERCADO EIRELI               MERCADO ROCHA                 0215LUIZ                     12/01/2017RUA RODOLFO RODRIGUES DE LARA                SAO CRISTOVAO       00128  005133173840       996113711      00221807920001660090502S                  000000000000000000400                    001105280000000000000000000000000026/09/20220010000000000000S0910344825  99060-464tauffer@annex.com.br                              001J27366103004N19                                                                                                                                                                                                                                              
050145114PATRICIA KOEHLER DA C.DOS SANTO               FRUTEIRA BOM GOSTO           0145PATRICIA                 10/11/2010AV.GIAVARINA 1192                            S.LUIZ GONZAGA      00107  0051999492136                     00241132720001660090403S                  000000000000000000300                    000412540000000000000000000000000028/09/20220010000000000000S0910373400  99054-040mercadobomgosto1192@hotmail.com                   001J82501697312N1192  LIMITE PELO SERASA $3500.00                                                                                                                                                                                                               
050145149SUPERMERCADO PARANA LTDA EPP                 SUPERMERCADO PARANA           0170TIAGO                    27/09/2017RUA RECIFE 541                               SAO JOSE            00128  005136321915       991220418      00286258090001280090502S                  000000000000000000300                    000659810000000000000000000000000014/09/20220030000000000000S0910360103  99052-070nfesuperparana@gmail.com                          001J01492323063N541                                                                                                                                                                                                                                             
050148350HOCKMULLER & CIA LTDA EPP                    SUPER,AMIZADE                 0230TAIZ                     00/00/0000AV PRESIDENTE VARGAS  3632                   SAO CRISTOVAO       00107  005154 33158460                   00111925420002000090104S                  000000000000000000400                    000130820000000000000000000000000014/09/20220050000000000000S0910365024  99064-000supermercadoamizade1@hotmail.com                  001J01197805001N3632  LIMITE PELO SERASA $114.000.00                                                                                                                                                                                                            
050148369JACSON DO PRADO DA SILVA 02324635062         MERCADO HACSON                0100JACSON                   06/08/2018RUA ADAO CARNEIRO 91                         SANTA MARTA         00107  00513313 9226      054 999145043  00284008160001210090104S                  000000000000000000200                    000251640100000000000000000000000028/09/20220010000000000000S0910369879  99036-650notas.jacsonbar@gmail.com                         001J02324635062N91    MEI-LIMITE PELO SERASA $1120.00                                                                                                                                                                                                           
050150266VALDENIR LORENCI AREND MERCADO               MERCADO AREND                 0225VALDENIR                 17/12/2018RUA CLAUDINO TOLDO 120                       SAO CRISTOVAO       00107  0051054 99144500                  00320540850001870090104S                  000000000000000000400                    000021300000000000000000000000000014/09/20220010000000000000S0910368511  99060-500valde-1991@hotmail.com                            001J01579341012N120   LIMITE PELO SERASA $2560.00                                                                                                                                                                                                               
050150355EDUARDA BARBIZAN GUADAGNINI                  FRUTEIRA DO BOSQUE            0460DIONISIO                 02/10/2018RUA GEN DALTRO FILHO  230                    LUCAS ARAUJO        00107  005154 996361336   54 996361336   00261182690001600090301S                  000000000000000000200                    000611910000000000000000000000000024/09/20220020000000000000N091/0360170 99074-020dionisioguadagnini8@gmail.com                     001J20148872107N 230                                                                                                                                                                                                                                            
050151297PANIFICADORA SANDRA LTDA                     PADARIA SANDRA                0000SANDRA                   07/03/2019AV JOAO CATTAPAN 1656                        SANTA MARTA         00105  005154 33125328    54 991930715   00108649610001060090501S                  000000000000000000200                    000506900000000000000000000000000014/09/20220010000000000000N0910301280  99036-000sandra.sdalbosco@gmail.com                        001J94338515015N1656                                                                                                                                                                                                                                            
050152749RMA PADARIA E ACOUGUE LTDA                   MERCADO DA BENTO              0000ANDRESSA                 00/00/0000RUA BENTO GONCALVES 109 FUNDOS               CENTRO              00121  005154 35811671                   00114913360001100090501S                  000000000000000000000                    000000000000000000000000000000000000/00/00000030000000000000S091/0306923 99010-010xml@rrasupermercados.com.br                       001J02659361010N109   LIMITE PELO SERASA $11840.00-P.FISICA COM RESTRICAO                                                                                                                                                                                       
050153206ANTONIO ALVES PEREIRA                        FRUTEIRA FOLHA VERDE          0290SEU ANTONIO              30/07/2019RUA SAO ROQUE 260                            PLANALTINA          00114  005154 999068847   54 999068847   00210462770001250090104S                  000000000000000000400                    000014140000000000000000000000000021/09/20220015000000000000SISENTO      99062-000analisecont@terra.com.br                          001J23411430087N260                                                                                                                                                                                                                                             
050154083GREGORI PULLI GIARETTA SUPERMERCADOS EIRELI  MERCADO GIARETTA              0195GIARETTA                 03/09/2019JOSE BONIFACIO 1228                          RODRIGUES           00107  005154 36223830    54 36223830    00340785250001610090302S                  000000000000000000300                    000014140000000000000000000000000021/09/20220015000000000000S0910374384  99070-070valmirgiaretta@hotmail.com                        001J04846245047N1228                                                                                                                                                                                                                                            
050154318ITAMAR KUNZ 00400512009                      MERCEARIA KUNZ                0125ITAMAR                   13/09/2019RUA ANTONIO DONIN 38                         S.LUIZ GONZAGA      00107  0051999079140      999079140      00309315850001240090104S                  000000000000000000300                    000175840000000000000000000000000027/09/20220015000000000000SISENTO      99054-520itamarkuns08@gmail.com                            001J00400512009N38    LIMITE 5180.00                                                                                                                                                                                                                            
050154954LISANDRO PEREIRA DO CARMO 74375504072        LISANDRO                      0305LISANDRO                 15/10/2019SALDANHA MARINHO 1222                        VILA RODRIGUES      00107 E0051999571052      999571052      40273110660001590090301S                  000000000000000000500                    000096020000000000000000000000000024/09/20220020000000000000SISENTO      99010-150lisandrocarmo@yahoo.com.br                        001J74375504072N1222                                                                                                                                                                                                                                            
050155276RRA SUPERMERCADOS LTDA                       RRA SUPERMERCADOS             0000ALISSON                  30/10/2019AV DR ALV  SEVERO DE MIRANDA 6               CIDADE NOVA         00107  005154 2104 4555                  00347090450004020120104N                  000000000000000000200                    000000000000000000000000000000000000/00/00000020000000000000S0910376077  99022-032xml@rrasupermercados.com.br                       001J74375504072N610   FECHOU MERCADO                                                                                                                                                                                                                            
050155411RRA SUPERMERCADOS LTDA                       SUPER MOROM                   0115ADEMIR                   11/11/2019RUA MOROM 1304                               CENTRO              00107  0051054 35811759   54 981374731   00347090450003130120104S                  000000000000000000200                    000000000000000000000000000000000000/00/00000020000000000000S0910375828  99010-031xml@rrasupermercados.com.br                       001J95116540049N1304  proprietario azambuja comprou                                                                                                                                                                                                             
050155845RRA SUPERMERCADOS LTDA                       MERCADO  IZZI                 0310ADEMIR                   05/12/2019RUA 15 DE NOVEMBRO 200                       CENTRO              00107  005154 21044555    054  981374731 00347090450002320050301N                  000000000000000000500                    000000000000000000000000000000000000/00/00000012000000000000S091/0375810 99010-090xml@rrasupermercados.com.br                       001J95116540049N200                                                                                                                                                                                                                                             
050156914MARCOS ROGERIO RIGON                         MERCADO BERTHIER              0075DIONE                    24/02/2020RUA GENERAL OSORIO 364                       BOQUEIRAO           00105B 0051054 3314 622   054 99901 8098 00363803780001050090104N                  000000000000000000200                    000000000000000000000000000000000000/00/00000005000000000000N0910378398  99010-140superberthierpf@gmail.com                         001J73635235091N364                                                                                                                                                                                                                                             
050156930ROSANGELA TERESINHA VARELLA 27381536072      MERCADI DA TERE               0150TERE                     26/02/2020RUA EUGENIO GIONGO 200                       S LUIZ GONZAGA      00107  0051054 99169709   054 991697095  00363762610001580090301S                  000000000000000000300                    000038020000000000000000000000000013/09/20220005000000000000SISENTO      99054-346rosangelavarella@gmail.com                        001J27381536072N200                                                                                                                                                                                                                                             
050156949RRA SUPERMERCADOS LTDA                       IZZI MERCADOS                 0315RODRIGO                  26/02/2020RUA URUGUAI 563                              CENTRO              00107  005154 21044555    054 21044555   00347090450005850090104N                  000000000000000000500                    000000000000000000000000000000000000/00/00000010000000000000S0910375836  99010-110xml@rrasupermercados.com.br                       001J95116540049N563                                                                                                                                                                                                                                             
050157147ALCENIR MATEUS DIAS                          MERCADO RODEIO                0055ALCENIR OU ALCEM         06/03/2020RUA SETEMBRINO VIEIRA DE SOUZA               SANTA MARTA         00107  005154 996001225   54 996001225   00069146210002480030104S                  000000000000000000200                    001596380000000000000000000000000026/09/20220015000000000000S0910377731  99036-440bringhti@escritoriobrighenti.com                  001J00749035005N265   LIMITE PELO SERASA ZERO-5 PENDENCIAS FINANCEIRAS COM NET                                                                                                                                                                                  
050157511ALIPASSO DISTRIBUIDORA LTDA                  MIX CENTER                    0325ALBINO                   31/03/2020AV PRESIDENTE VARGAS 3590                    SAO CRISTOVAO       00128  0051054 33110287   054 33110287   00364271820001290080104S                  000000000000000000500                    003638180000000000000000000000000026/09/20220100000000000000S0910378401  99064-000rejane@mixcenterpf.com.br                         001J81005636087N3590                                                                                                                                                                                                                                            
050157554RRA SUPERMERCADOS LTDA                       IZZI SUPERMERCADOS            0120RODRIGO                  01/04/2020RUA BENTO GONCALVES 109                      CENTRO              00121  0051054 21044555   054 21044555   00347090450007470120104N                  000000000000000000200                    000000000000000000000000000000000000/00/00000010000000000000S0910378037  99010-010xml@rrasupermercados.com.br                       001J95116540049N109                                                                                                                                                                                                                                             
050157570CLARA SIMONE VELASQUEZ RODRIGUES 52552306004 FRUTEIRA VITALI               0155CLARA                    03/04/2020AV LUIZ DE CAMOES 165                        SAO JOSE            00107  0051054 33120020   054 991646830  00199539530001000090201S                  000000000000000000300                    000170070000000000000000000000000014/09/20220005000000000000S0910397317  99052-030comercio.defrutas.vitali.hotmail.co               001J01065280092N165                                                                                                                                                                                                                                             
050157686RRA SUPERMERCADOS LTDA                       IZZI SUPERMERCADOS            0040JORGE                    09/04/2020RUA DALTRO FILHO 624                         LUCAS ARAUJO        00121  0051054 21044555   054 210434555  00347090450008280090104N                  000000000000000000200                    000000000000000000000000000000000000/00/00000010000000000000S0910378045  99074-020xml@rrasupermercados.com.br                       001J95116540049N624                                                                                                                                                                                                                                             
050157953MINI MERCADOTEIXEIRA & CARDEAL LTDA          MINI MER DA FAMILIA          0275PAULO                    01/01/1995RUA DELMAR SITONE 390                        PLANALTINA          00200  0051054 99934962   054 3601-3649  00367569260001590040104S                  000000000000000000400                    000189450000000000000000000000000014/09/20220003000000000000N0910379556  99062-580pauloteixeira393@gmail.com                        001J56856393091N390                                                                                                                                                                                                                                             
050158283MOACIR ADILIO MANICA                         PADA SOA CRISTOVAO            0000CLAUDIA                  28/05/2020AV PRESIDENTE VARGAS 2659                    SAO CRISTOVAO       00114  005154 35810233    549979 6891    00367096500001580090806S                  000000000000000000200                    000219170000000000000000000000000028/09/20220010000000000000S0910379602  99064-000padariasaocristovao.manica@gmail.co               001J44134690030N2659                                                                                                                                                                                                                                            
050158690VILMA MARIA COVATI PASQUALOTO 80763146072    MERCADO JP                    0285JUCELIR                  23/06/2020AV PRESIDENTE VARGAS 5693                    SAO CRISTOVAO       00200  005154 992700568   54 992700568   00325128200001590000201S                  000000000000000000400                    000207860000000000000000000000000002/09/20220007000000000000NISENTO      99064-000angepasqualotto@icluod.com                        001J80763146072N5693                                                                                                                                                                                                                                            
050158836ANGELA PAULA ISOTTON 02785424093             MERCADO AVENIDA               0150ANGELA                   14/07/2020AV GIAVARINA 1328                            S LUIZ GONZAGA      00107  0051054 99689616   054 996896169  00215152140001700090201S                  000000000000000000300                    000008440000000000000000000000000023/09/20220010000000000000SISENTO      99054-040isottonangela25@gmail.com                         001J02785424093N1328                                                                                                                                                                                                                                            
050158895SERGIO ALBRECHT ACOUGUES                     CS DE CARNE DO ALEMO          0370SERGIO                   30/11/1978RUA WALDEMAR JACOB MICHEL 47                 SAO CRISTOVAO       00114  00519.9996.51.17   9.9996.51.17   00289911960001420090503S                  000000000000000000500                    002035990000000000000000000000000029/09/20220020000000000000S0910366454  99060-469moacir@pfcontabil.com.br                          001J99181975015N47    DEVAGAR, NAO PASSAR DO LIMITE                                                                                                                                                                                                             
050159239ANDERSON FERNANDES SUPERMERCADOS EIRELI      MERCADO BRASIL                0105ANDERSON                 17/08/2020AV BRASIL OESTE 1900                         BOQUEIRAO           00200  005105436227981    05436227981    00380468800001000040201S                  000000000000000000200                    000270280000000000000000000000000027/09/20220010000000000000N0910381399  99025-054financeiro@mercadobrasilboqueirao.c               001J00195684010N1900  TEM UM PROTESTO NOP CNPJ, PAGA UM BOLETO PARA IR OUTRO, DEVAGAR                                                                                                                                                                           
050160865MANOEL ADILSON MARINS 91827639091            MERCADO FRAM                  0135MANOEL                   04/11/2020RUA FELIPE PORTINHO 130                      S LUIZ GONZAGA      00107  005199697774       99697774       00393376810001130090201S                  000000000000000000300                    000385100000000000000000000000000013/09/20220010000000000000SISENTO      99054-160francieleoliveira264265@gmail.com                 001J91827639091N130                                                                                                                                                                                                                                             
050161381ALIPASSO DISTRIBUIDORA LTDA                  MIX CENTER                    0335TIAGO                    01/12/2020RUA MOROM 3790                               BOQUEIRAO           00121  005154 32640900    54 32640900    00364271820003900080202S                  000000000000000000500                    003745300000000000000000000000000026/09/20220020000000000000S0910384207  99025-388mixcenter@mixcenterpf.com.br                      001J92858244049N3790                                                                                                                                                                                                                                            
